{
  "contractName": "Registry",
  "abi": [
    {
      "inputs": [],
      "stateMutability": "nonpayable",
      "type": "constructor"
    },
    {
      "inputs": [
        {
          "internalType": "address",
          "name": "owner",
          "type": "address"
        }
      ],
      "name": "OwnableInvalidOwner",
      "type": "error"
    },
    {
      "inputs": [
        {
          "internalType": "address",
          "name": "account",
          "type": "address"
        }
      ],
      "name": "OwnableUnauthorizedAccount",
      "type": "error"
    },
    {
      "anonymous": false,
      "inputs": [
        {
          "indexed": false,
          "internalType": "uint256",
          "name": "propertyId",
          "type": "uint256"
        }
      ],
      "name": "LogApprovedForTransaction",
      "type": "event"
    },
    {
      "anonymous": false,
      "inputs": [
        {
          "indexed": false,
          "internalType": "uint256",
          "name": "propertyId",
          "type": "uint256"
        }
      ],
      "name": "LogSold",
      "type": "event"
    },
    {
      "anonymous": false,
      "inputs": [
        {
          "indexed": false,
          "internalType": "uint256",
          "name": "propertyId",
          "type": "uint256"
        },
        {
          "indexed": false,
          "internalType": "string",
          "name": "name",
          "type": "string"
        },
        {
          "indexed": false,
          "internalType": "string",
          "name": "location",
          "type": "string"
        },
        {
          "indexed": false,
          "internalType": "string",
          "name": "holder_name",
          "type": "string"
        },
        {
          "indexed": false,
          "internalType": "string",
          "name": "lr_no",
          "type": "string"
        }
      ],
      "name": "NewProperty",
      "type": "event"
    },
    {
      "anonymous": false,
      "inputs": [
        {
          "indexed": true,
          "internalType": "address",
          "name": "previousOwner",
          "type": "address"
        },
        {
          "indexed": true,
          "internalType": "address",
          "name": "newOwner",
          "type": "address"
        }
      ],
      "name": "OwnershipTransferred",
      "type": "event"
    },
    {
      "inputs": [
        {
          "internalType": "address",
          "name": "",
          "type": "address"
        }
      ],
      "name": "holderToPropertyCount",
      "outputs": [
        {
          "internalType": "uint256",
          "name": "",
          "type": "uint256"
        }
      ],
      "stateMutability": "view",
      "type": "function",
      "constant": true
    },
    {
      "inputs": [
        {
          "internalType": "address",
          "name": "",
          "type": "address"
        }
      ],
      "name": "holderdetails",
      "outputs": [
        {
          "internalType": "string",
          "name": "name",
          "type": "string"
        },
        {
          "internalType": "string",
          "name": "tax_pin",
          "type": "string"
        },
        {
          "internalType": "string",
          "name": "email",
          "type": "string"
        },
        {
          "internalType": "uint256",
          "name": "id_no",
          "type": "uint256"
        },
        {
          "internalType": "uint256",
          "name": "contact",
          "type": "uint256"
        },
        {
          "internalType": "address",
          "name": "owner",
          "type": "address"
        },
        {
          "internalType": "bool",
          "name": "isExist",
          "type": "bool"
        }
      ],
      "stateMutability": "view",
      "type": "function",
      "constant": true
    },
    {
      "inputs": [
        {
          "internalType": "uint256",
          "name": "",
          "type": "uint256"
        }
      ],
      "name": "holders",
      "outputs": [
        {
          "internalType": "string",
          "name": "name",
          "type": "string"
        },
        {
          "internalType": "string",
          "name": "tax_pin",
          "type": "string"
        },
        {
          "internalType": "string",
          "name": "email",
          "type": "string"
        },
        {
          "internalType": "uint256",
          "name": "id_no",
          "type": "uint256"
        },
        {
          "internalType": "uint256",
          "name": "contact",
          "type": "uint256"
        },
        {
          "internalType": "address",
          "name": "owner",
          "type": "address"
        },
        {
          "internalType": "bool",
          "name": "isExist",
          "type": "bool"
        }
      ],
      "stateMutability": "view",
      "type": "function",
      "constant": true
    },
    {
      "inputs": [],
      "name": "owner",
      "outputs": [
        {
          "internalType": "address",
          "name": "",
          "type": "address"
        }
      ],
      "stateMutability": "view",
      "type": "function",
      "constant": true
    },
    {
      "inputs": [],
      "name": "propCount",
      "outputs": [
        {
          "internalType": "uint256",
          "name": "",
          "type": "uint256"
        }
      ],
      "stateMutability": "view",
      "type": "function",
      "constant": true
    },
    {
      "inputs": [
        {
          "internalType": "uint256",
          "name": "",
          "type": "uint256"
        }
      ],
      "name": "properties",
      "outputs": [
        {
          "internalType": "uint256",
          "name": "id",
          "type": "uint256"
        },
        {
          "internalType": "string",
          "name": "name",
          "type": "string"
        },
        {
          "internalType": "string",
          "name": "location",
          "type": "string"
        },
        {
          "internalType": "string",
          "name": "holder_name",
          "type": "string"
        },
        {
          "internalType": "string",
          "name": "lr_no",
          "type": "string"
        },
        {
          "internalType": "uint256",
          "name": "holder_id",
          "type": "uint256"
        },
        {
          "internalType": "address",
          "name": "_addr",
          "type": "address"
        },
        {
          "internalType": "uint256",
          "name": "price",
          "type": "uint256"
        },
        {
          "internalType": "bool",
          "name": "sold",
          "type": "bool"
        },
        {
          "internalType": "uint256",
          "name": "timestamp",
          "type": "uint256"
        }
      ],
      "stateMutability": "view",
      "type": "function",
      "constant": true
    },
    {
      "inputs": [
        {
          "internalType": "uint256",
          "name": "",
          "type": "uint256"
        }
      ],
      "name": "propertyToHolder",
      "outputs": [
        {
          "internalType": "address",
          "name": "",
          "type": "address"
        }
      ],
      "stateMutability": "view",
      "type": "function",
      "constant": true
    },
    {
      "inputs": [
        {
          "internalType": "address",
          "name": "",
          "type": "address"
        }
      ],
      "name": "publicProperty",
      "outputs": [
        {
          "internalType": "uint256",
          "name": "id",
          "type": "uint256"
        },
        {
          "internalType": "string",
          "name": "name",
          "type": "string"
        },
        {
          "internalType": "string",
          "name": "location",
          "type": "string"
        },
        {
          "internalType": "string",
          "name": "holder_name",
          "type": "string"
        },
        {
          "internalType": "string",
          "name": "lr_no",
          "type": "string"
        },
        {
          "internalType": "uint256",
          "name": "holder_id",
          "type": "uint256"
        },
        {
          "internalType": "address",
          "name": "_addr",
          "type": "address"
        },
        {
          "internalType": "uint256",
          "name": "price",
          "type": "uint256"
        },
        {
          "internalType": "bool",
          "name": "sold",
          "type": "bool"
        },
        {
          "internalType": "uint256",
          "name": "timestamp",
          "type": "uint256"
        }
      ],
      "stateMutability": "view",
      "type": "function",
      "constant": true
    },
    {
      "inputs": [
        {
          "internalType": "string",
          "name": "",
          "type": "string"
        }
      ],
      "name": "regToAvailable",
      "outputs": [
        {
          "internalType": "bool",
          "name": "",
          "type": "bool"
        }
      ],
      "stateMutability": "view",
      "type": "function",
      "constant": true
    },
    {
      "inputs": [],
      "name": "renounceOwnership",
      "outputs": [],
      "stateMutability": "nonpayable",
      "type": "function"
    },
    {
      "inputs": [],
      "name": "transactionCount",
      "outputs": [
        {
          "internalType": "uint256",
          "name": "",
          "type": "uint256"
        }
      ],
      "stateMutability": "view",
      "type": "function",
      "constant": true
    },
    {
      "inputs": [
        {
          "internalType": "uint256",
          "name": "",
          "type": "uint256"
        }
      ],
      "name": "transactions",
      "outputs": [
        {
          "internalType": "uint256",
          "name": "id",
          "type": "uint256"
        },
        {
          "internalType": "string",
          "name": "name",
          "type": "string"
        },
        {
          "internalType": "string",
          "name": "location",
          "type": "string"
        },
        {
          "internalType": "string",
          "name": "holder_name",
          "type": "string"
        },
        {
          "internalType": "string",
          "name": "lr_no",
          "type": "string"
        },
        {
          "internalType": "uint256",
          "name": "holder_id",
          "type": "uint256"
        },
        {
          "internalType": "address",
          "name": "_addr",
          "type": "address"
        },
        {
          "internalType": "uint256",
          "name": "price",
          "type": "uint256"
        },
        {
          "internalType": "bool",
          "name": "sold",
          "type": "bool"
        },
        {
          "internalType": "uint256",
          "name": "timestamp",
          "type": "uint256"
        }
      ],
      "stateMutability": "view",
      "type": "function",
      "constant": true
    },
    {
      "inputs": [
        {
          "internalType": "address",
          "name": "newOwner",
          "type": "address"
        }
      ],
      "name": "transferOwnership",
      "outputs": [],
      "stateMutability": "nonpayable",
      "type": "function"
    },
    {
      "inputs": [
        {
          "internalType": "string",
          "name": "name",
          "type": "string"
        },
        {
          "internalType": "string",
          "name": "tax_pin",
          "type": "string"
        },
        {
          "internalType": "string",
          "name": "email",
          "type": "string"
        },
        {
          "internalType": "uint256",
          "name": "id_no",
          "type": "uint256"
        },
        {
          "internalType": "uint256",
          "name": "contact",
          "type": "uint256"
        }
      ],
      "name": "regHolders",
      "outputs": [],
      "stateMutability": "nonpayable",
      "type": "function"
    },
    {
      "inputs": [],
      "name": "getHolders",
      "outputs": [
        {
          "components": [
            {
              "internalType": "string",
              "name": "name",
              "type": "string"
            },
            {
              "internalType": "string",
              "name": "tax_pin",
              "type": "string"
            },
            {
              "internalType": "string",
              "name": "email",
              "type": "string"
            },
            {
              "internalType": "uint256",
              "name": "id_no",
              "type": "uint256"
            },
            {
              "internalType": "uint256",
              "name": "contact",
              "type": "uint256"
            },
            {
              "internalType": "address",
              "name": "owner",
              "type": "address"
            },
            {
              "internalType": "bool",
              "name": "isExist",
              "type": "bool"
            }
          ],
          "internalType": "struct Registry.holder[]",
          "name": "",
          "type": "tuple[]"
        }
      ],
      "stateMutability": "view",
      "type": "function",
      "constant": true
    },
    {
      "inputs": [
        {
          "internalType": "string",
          "name": "name",
          "type": "string"
        },
        {
          "internalType": "string",
          "name": "location",
          "type": "string"
        },
        {
          "internalType": "string",
          "name": "holder_name",
          "type": "string"
        },
        {
          "internalType": "string",
          "name": "lr_no",
          "type": "string"
        },
        {
          "internalType": "uint256",
          "name": "holder_id",
          "type": "uint256"
        },
        {
          "internalType": "uint256",
          "name": "price",
          "type": "uint256"
        }
      ],
      "name": "regProperty",
      "outputs": [],
      "stateMutability": "nonpayable",
      "type": "function"
    },
    {
      "inputs": [
        {
          "internalType": "address",
          "name": "_holder",
          "type": "address"
        }
      ],
      "name": "getPropertyByHolder",
      "outputs": [
        {
          "internalType": "uint256[]",
          "name": "",
          "type": "uint256[]"
        }
      ],
      "stateMutability": "view",
      "type": "function",
      "constant": true
    },
    {
      "inputs": [
        {
          "internalType": "uint256",
          "name": "_propertyId",
          "type": "uint256"
        }
      ],
      "name": "buyProperty",
      "outputs": [],
      "stateMutability": "payable",
      "type": "function",
      "payable": true
    },
    {
      "inputs": [
        {
          "internalType": "uint256",
          "name": "_propertyId",
          "type": "uint256"
        }
      ],
      "name": "sellProperty",
      "outputs": [],
      "stateMutability": "nonpayable",
      "type": "function"
    }
  ],
  "bytecode": "0x60806040526000600155600060025560006003553480156200002057600080fd5b503362000033816200003a60201b60201c565b50620000fe565b60008060009054906101000a900473ffffffffffffffffffffffffffffffffffffffff169050816000806101000a81548173ffffffffffffffffffffffffffffffffffffffff021916908373ffffffffffffffffffffffffffffffffffffffff1602179055508173ffffffffffffffffffffffffffffffffffffffff168173ffffffffffffffffffffffffffffffffffffffff167f8be0079c531659141344cd1fd0a4f28419497f9722a3daafe3b4186f6b6457e060405160405180910390a35050565b61373e806200010e6000396000f3fe6080604052600436106101145760003560e01c80638f6d7a88116100a0578063d0cec04511610064578063d0cec045146103b3578063dffc9782146103f9578063f2fde38b1461043c578063f6941d5614610465578063f7b10808146104a257610114565b80638f6d7a881461029f5780639ace38c2146102dc578063ac0bdd3414610322578063ac91e6471461035f578063b77bf6001461038857610114565b80635fe8e7cc116100e75780635fe8e7cc146101ed57806360547e07146102185780636fa830a614610241578063715018a61461025d5780638da5cb5b1461027457610114565b8063068a684e14610119578063094157fa146101565780632a11ced01461017f57806333bc7bf0146101c2575b600080fd5b34801561012557600080fd5b50610140600480360381019061013b91906129bc565b6104e8565b60405161014d9190612a02565b60405180910390f35b34801561016257600080fd5b5061017d60048036038101906101789190612a49565b610500565b005b34801561018b57600080fd5b506101a660048036038101906101a19190612a49565b610956565b6040516101b99796959493929190612b30565b60405180910390f35b3480156101ce57600080fd5b506101d7610b6d565b6040516101e49190612a02565b60405180910390f35b3480156101f957600080fd5b50610202610b73565b60405161020f9190612d97565b60405180910390f35b34801561022457600080fd5b5061023f600480360381019061023a9190612eee565b610e0d565b005b61025b60048036038101906102569190612a49565b6110ad565b005b34801561026957600080fd5b5061027261177f565b005b34801561028057600080fd5b50610289611793565b6040516102969190612fbd565b60405180910390f35b3480156102ab57600080fd5b506102c660048036038101906102c19190612fd8565b6117bc565b6040516102d39190613021565b60405180910390f35b3480156102e857600080fd5b5061030360048036038101906102fe9190612a49565b6117f2565b6040516103199a9998979695949392919061303c565b60405180910390f35b34801561032e57600080fd5b50610349600480360381019061034491906129bc565b611a93565b60405161035691906131a3565b60405180910390f35b34801561036b57600080fd5b50610386600480360381019061038191906131c5565b611be5565b005b34801561039457600080fd5b5061039d611fef565b6040516103aa9190612a02565b60405180910390f35b3480156103bf57600080fd5b506103da60048036038101906103d591906129bc565b611ff5565b6040516103f09a9998979695949392919061303c565b60405180910390f35b34801561040557600080fd5b50610420600480360381019061041b91906129bc565b612296565b6040516104339796959493929190612b30565b60405180910390f35b34801561044857600080fd5b50610463600480360381019061045e91906129bc565b61249d565b005b34801561047157600080fd5b5061048c60048036038101906104879190612a49565b612523565b6040516104999190612fbd565b60405180910390f35b3480156104ae57600080fd5b506104c960048036038101906104c49190612a49565b612556565b6040516104df9a9998979695949392919061303c565b60405180910390f35b60076020528060005260406000206000915090505481565b600060046000838152602001908152602001600020604051806101400160405290816000820154815260200160018201805461053b906132f1565b80601f0160208091040260200160405190810160405280929190818152602001828054610567906132f1565b80156105b45780601f10610589576101008083540402835291602001916105b4565b820191906000526020600020905b81548152906001019060200180831161059757829003601f168201915b505050505081526020016002820180546105cd906132f1565b80601f01602080910402602001604051908101604052809291908181526020018280546105f9906132f1565b80156106465780601f1061061b57610100808354040283529160200191610646565b820191906000526020600020905b81548152906001019060200180831161062957829003601f168201915b5050505050815260200160038201805461065f906132f1565b80601f016020809104026020016040519081016040528092919081815260200182805461068b906132f1565b80156106d85780601f106106ad576101008083540402835291602001916106d8565b820191906000526020600020905b8154815290600101906020018083116106bb57829003601f168201915b505050505081526020016004820180546106f1906132f1565b80601f016020809104026020016040519081016040528092919081815260200182805461071d906132f1565b801561076a5780601f1061073f5761010080835404028352916020019161076a565b820191906000526020600020905b81548152906001019060200180831161074d57829003601f168201915b50505050508152602001600582015481526020016006820160009054906101000a900473ffffffffffffffffffffffffffffffffffffffff1673ffffffffffffffffffffffffffffffffffffffff1673ffffffffffffffffffffffffffffffffffffffff168152602001600782015481526020016008820160009054906101000a900460ff1615151515815260200160098201548152505090508060c0015173ffffffffffffffffffffffffffffffffffffffff163373ffffffffffffffffffffffffffffffffffffffff161461084057600080fd5b600081610100019015159081151581525050806004600084815260200190815260200160002060008201518160000155602082015181600101908161088591906134ce565b50604082015181600201908161089b91906134ce565b5060608201518160030190816108b191906134ce565b5060808201518160040190816108c791906134ce565b5060a0820151816005015560c08201518160060160006101000a81548173ffffffffffffffffffffffffffffffffffffffff021916908373ffffffffffffffffffffffffffffffffffffffff16021790555060e082015181600701556101008201518160080160006101000a81548160ff02191690831515021790555061012082015181600901559050505050565b6006818154811061096657600080fd5b9060005260206000209060060201600091509050806000018054610989906132f1565b80601f01602080910402602001604051908101604052809291908181526020018280546109b5906132f1565b8015610a025780601f106109d757610100808354040283529160200191610a02565b820191906000526020600020905b8154815290600101906020018083116109e557829003601f168201915b505050505090806001018054610a17906132f1565b80601f0160208091040260200160405190810160405280929190818152602001828054610a43906132f1565b8015610a905780601f10610a6557610100808354040283529160200191610a90565b820191906000526020600020905b815481529060010190602001808311610a7357829003601f168201915b505050505090806002018054610aa5906132f1565b80601f0160208091040260200160405190810160405280929190818152602001828054610ad1906132f1565b8015610b1e5780601f10610af357610100808354040283529160200191610b1e565b820191906000526020600020905b815481529060010190602001808311610b0157829003601f168201915b5050505050908060030154908060040154908060050160009054906101000a900473ffffffffffffffffffffffffffffffffffffffff16908060050160149054906101000a900460ff16905087565b60015481565b60606006805480602002602001604051908101604052809291908181526020016000905b82821015610e0457838290600052602060002090600602016040518060e0016040529081600082018054610bca906132f1565b80601f0160208091040260200160405190810160405280929190818152602001828054610bf6906132f1565b8015610c435780601f10610c1857610100808354040283529160200191610c43565b820191906000526020600020905b815481529060010190602001808311610c2657829003601f168201915b50505050508152602001600182018054610c5c906132f1565b80601f0160208091040260200160405190810160405280929190818152602001828054610c88906132f1565b8015610cd55780601f10610caa57610100808354040283529160200191610cd5565b820191906000526020600020905b815481529060010190602001808311610cb857829003601f168201915b50505050508152602001600282018054610cee906132f1565b80601f0160208091040260200160405190810160405280929190818152602001828054610d1a906132f1565b8015610d675780601f10610d3c57610100808354040283529160200191610d67565b820191906000526020600020905b815481529060010190602001808311610d4a57829003601f168201915b5050505050815260200160038201548152602001600482015481526020016005820160009054906101000a900473ffffffffffffffffffffffffffffffffffffffff1673ffffffffffffffffffffffffffffffffffffffff1673ffffffffffffffffffffffffffffffffffffffff1681526020016005820160149054906101000a900460ff16151515158152505081526020019060010190610b97565b50505050905090565b60026000815480929190610e20906135cf565b919050555060066040518060e001604052808781526020018681526020018581526020018481526020018381526020013373ffffffffffffffffffffffffffffffffffffffff1681526020016001151581525090806001815401808255809150506001900390600052602060002090600602016000909190919091506000820151816000019081610eb191906134ce565b506020820151816001019081610ec791906134ce565b506040820151816002019081610edd91906134ce565b50606082015181600301556080820151816004015560a08201518160050160006101000a81548173ffffffffffffffffffffffffffffffffffffffff021916908373ffffffffffffffffffffffffffffffffffffffff16021790555060c08201518160050160146101000a81548160ff02191690831515021790555050506040518060e001604052808681526020018581526020018481526020018381526020018281526020013373ffffffffffffffffffffffffffffffffffffffff16815260200160011515815250600b60003373ffffffffffffffffffffffffffffffffffffffff1673ffffffffffffffffffffffffffffffffffffffff1681526020019081526020016000206000820151816000019081610ffb91906134ce565b50602082015181600101908161101191906134ce565b50604082015181600201908161102791906134ce565b50606082015181600301556080820151816004015560a08201518160050160006101000a81548173ffffffffffffffffffffffffffffffffffffffff021916908373ffffffffffffffffffffffffffffffffffffffff16021790555060c08201518160050160146101000a81548160ff0219169083151502179055509050505050505050565b60006004600083815260200190815260200160002060405180610140016040529081600082015481526020016001820180546110e8906132f1565b80601f0160208091040260200160405190810160405280929190818152602001828054611114906132f1565b80156111615780601f1061113657610100808354040283529160200191611161565b820191906000526020600020905b81548152906001019060200180831161114457829003601f168201915b5050505050815260200160028201805461117a906132f1565b80601f01602080910402602001604051908101604052809291908181526020018280546111a6906132f1565b80156111f35780601f106111c8576101008083540402835291602001916111f3565b820191906000526020600020905b8154815290600101906020018083116111d657829003601f168201915b5050505050815260200160038201805461120c906132f1565b80601f0160208091040260200160405190810160405280929190818152602001828054611238906132f1565b80156112855780601f1061125a57610100808354040283529160200191611285565b820191906000526020600020905b81548152906001019060200180831161126857829003601f168201915b5050505050815260200160048201805461129e906132f1565b80601f01602080910402602001604051908101604052809291908181526020018280546112ca906132f1565b80156113175780601f106112ec57610100808354040283529160200191611317565b820191906000526020600020905b8154815290600101906020018083116112fa57829003601f168201915b50505050508152602001600582015481526020016006820160009054906101000a900473ffffffffffffffffffffffffffffffffffffffff1673ffffffffffffffffffffffffffffffffffffffff1673ffffffffffffffffffffffffffffffffffffffff168152602001600782015481526020016008820160009054906101000a900460ff16151515158152602001600982015481525050905060008160c001519050816101000151156113ca57600080fd5b3373ffffffffffffffffffffffffffffffffffffffff168173ffffffffffffffffffffffffffffffffffffffff160361140257600080fd5b8160e0015134101561141357600080fd5b338260c0019073ffffffffffffffffffffffffffffffffffffffff16908173ffffffffffffffffffffffffffffffffffffffff1681525050600182610100019015159081151581525050816004600085815260200190815260200160002060008201518160000155602082015181600101908161149091906134ce565b5060408201518160020190816114a691906134ce565b5060608201518160030190816114bc91906134ce565b5060808201518160040190816114d291906134ce565b5060a0820151816005015560c08201518160060160006101000a81548173ffffffffffffffffffffffffffffffffffffffff021916908373ffffffffffffffffffffffffffffffffffffffff16021790555060e082015181600701556101008201518160080160006101000a81548160ff02191690831515021790555061012082015181600901559050508073ffffffffffffffffffffffffffffffffffffffff166108fc349081150290604051600060405180830381858888f193505050501580156115a3573d6000803e3d6000fd5b5060004283610120018181525050600360008154809291906115c4906135cf565b91905055506040518061014001604052806003548152602001846020015181526020018460400151815260200184606001518152602001846080015181526020018460a0015181526020013373ffffffffffffffffffffffffffffffffffffffff1681526020018460e00151815260200182151581526020014281525060056000600354815260200190815260200160002060008201518160000155602082015181600101908161167591906134ce565b50604082015181600201908161168b91906134ce565b5060608201518160030190816116a191906134ce565b5060808201518160040190816116b791906134ce565b5060a0820151816005015560c08201518160060160006101000a81548173ffffffffffffffffffffffffffffffffffffffff021916908373ffffffffffffffffffffffffffffffffffffffff16021790555060e082015181600701556101008201518160080160006101000a81548160ff02191690831515021790555061012082015181600901559050507fe64ca8c671e48636f85f3008c1dd538e36bfa74fb6f2790b56b72fcc33b879ef846040516117719190612a02565b60405180910390a150505050565b6117876127f7565b611791600061287e565b565b60008060009054906101000a900473ffffffffffffffffffffffffffffffffffffffff16905090565b6009818051602081018201805184825260208301602085012081835280955050505050506000915054906101000a900460ff1681565b600560205280600052604060002060009150905080600001549080600101805461181b906132f1565b80601f0160208091040260200160405190810160405280929190818152602001828054611847906132f1565b80156118945780601f1061186957610100808354040283529160200191611894565b820191906000526020600020905b81548152906001019060200180831161187757829003601f168201915b5050505050908060020180546118a9906132f1565b80601f01602080910402602001604051908101604052809291908181526020018280546118d5906132f1565b80156119225780601f106118f757610100808354040283529160200191611922565b820191906000526020600020905b81548152906001019060200180831161190557829003601f168201915b505050505090806003018054611937906132f1565b80601f0160208091040260200160405190810160405280929190818152602001828054611963906132f1565b80156119b05780601f10611985576101008083540402835291602001916119b0565b820191906000526020600020905b81548152906001019060200180831161199357829003601f168201915b5050505050908060040180546119c5906132f1565b80601f01602080910402602001604051908101604052809291908181526020018280546119f1906132f1565b8015611a3e5780601f10611a1357610100808354040283529160200191611a3e565b820191906000526020600020905b815481529060010190602001808311611a2157829003601f168201915b5050505050908060050154908060060160009054906101000a900473ffffffffffffffffffffffffffffffffffffffff16908060070154908060080160009054906101000a900460ff1690806009015490508a565b60606000600760008473ffffffffffffffffffffffffffffffffffffffff1673ffffffffffffffffffffffffffffffffffffffff1681526020019081526020016000205467ffffffffffffffff811115611af057611aef612dc3565b5b604051908082528060200260200182016040528015611b1e5781602001602082028036833780820191505090505b5090506000805b600680549050811015611bda578473ffffffffffffffffffffffffffffffffffffffff166008600083815260200190815260200160002060009054906101000a900473ffffffffffffffffffffffffffffffffffffffff1673ffffffffffffffffffffffffffffffffffffffff1603611bc75780838381518110611bac57611bab613617565b5b6020026020010181815250508180611bc3906135cf565b9250505b8080611bd2906135cf565b915050611b25565b508192505050919050565b600983604051611bf59190613682565b908152602001604051809103902060009054906101000a900460ff1615611c1b57600080fd5b60006001905060016000815480929190611c34906135cf565b919050555060036000815480929190611c4c906135cf565b9190505550600042905060405180610140016040528060015481526020018981526020018881526020018781526020018681526020018581526020013373ffffffffffffffffffffffffffffffffffffffff168152602001848152602001831515815260200182815250600460006001548152602001908152602001600020600082015181600001556020820151816001019081611cea91906134ce565b506040820151816002019081611d0091906134ce565b506060820151816003019081611d1691906134ce565b506080820151816004019081611d2c91906134ce565b5060a0820151816005015560c08201518160060160006101000a81548173ffffffffffffffffffffffffffffffffffffffff021916908373ffffffffffffffffffffffffffffffffffffffff16021790555060e082015181600701556101008201518160080160006101000a81548160ff021916908315150217905550610120820151816009015590505060405180610140016040528060015481526020018981526020018881526020018781526020018681526020018581526020013373ffffffffffffffffffffffffffffffffffffffff168152602001848152602001831515815260200182815250600560006003548152602001908152602001600020600082015181600001556020820151816001019081611e4b91906134ce565b506040820151816002019081611e6191906134ce565b506060820151816003019081611e7791906134ce565b506080820151816004019081611e8d91906134ce565b5060a0820151816005015560c08201518160060160006101000a81548173ffffffffffffffffffffffffffffffffffffffff021916908373ffffffffffffffffffffffffffffffffffffffff16021790555060e082015181600701556101008201518160080160006101000a81548160ff02191690831515021790555061012082015181600901559050506001600986604051611f2a9190613682565b908152602001604051809103902060006101000a81548160ff021916908315150217905550600760003373ffffffffffffffffffffffffffffffffffffffff1673ffffffffffffffffffffffffffffffffffffffff1681526020019081526020016000206000815480929190611f9f906135cf565b91905055507f34396a3e03f105e584dbe5a2da726aeb5566eb3d14f4688a97f201e5b335272360015489898989604051611fdd959493929190613699565b60405180910390a15050505050505050565b60035481565b600a60205280600052604060002060009150905080600001549080600101805461201e906132f1565b80601f016020809104026020016040519081016040528092919081815260200182805461204a906132f1565b80156120975780601f1061206c57610100808354040283529160200191612097565b820191906000526020600020905b81548152906001019060200180831161207a57829003601f168201915b5050505050908060020180546120ac906132f1565b80601f01602080910402602001604051908101604052809291908181526020018280546120d8906132f1565b80156121255780601f106120fa57610100808354040283529160200191612125565b820191906000526020600020905b81548152906001019060200180831161210857829003601f168201915b50505050509080600301805461213a906132f1565b80601f0160208091040260200160405190810160405280929190818152602001828054612166906132f1565b80156121b35780601f10612188576101008083540402835291602001916121b3565b820191906000526020600020905b81548152906001019060200180831161219657829003601f168201915b5050505050908060040180546121c8906132f1565b80601f01602080910402602001604051908101604052809291908181526020018280546121f4906132f1565b80156122415780601f1061221657610100808354040283529160200191612241565b820191906000526020600020905b81548152906001019060200180831161222457829003601f168201915b5050505050908060050154908060060160009054906101000a900473ffffffffffffffffffffffffffffffffffffffff16908060070154908060080160009054906101000a900460ff1690806009015490508a565b600b6020528060005260406000206000915090508060000180546122b9906132f1565b80601f01602080910402602001604051908101604052809291908181526020018280546122e5906132f1565b80156123325780601f1061230757610100808354040283529160200191612332565b820191906000526020600020905b81548152906001019060200180831161231557829003601f168201915b505050505090806001018054612347906132f1565b80601f0160208091040260200160405190810160405280929190818152602001828054612373906132f1565b80156123c05780601f10612395576101008083540402835291602001916123c0565b820191906000526020600020905b8154815290600101906020018083116123a357829003601f168201915b5050505050908060020180546123d5906132f1565b80601f0160208091040260200160405190810160405280929190818152602001828054612401906132f1565b801561244e5780601f106124235761010080835404028352916020019161244e565b820191906000526020600020905b81548152906001019060200180831161243157829003601f168201915b5050505050908060030154908060040154908060050160009054906101000a900473ffffffffffffffffffffffffffffffffffffffff16908060050160149054906101000a900460ff16905087565b6124a56127f7565b600073ffffffffffffffffffffffffffffffffffffffff168173ffffffffffffffffffffffffffffffffffffffff16036125175760006040517f1e4fbdf700000000000000000000000000000000000000000000000000000000815260040161250e9190612fbd565b60405180910390fd5b6125208161287e565b50565b60086020528060005260406000206000915054906101000a900473ffffffffffffffffffffffffffffffffffffffff1681565b600460205280600052604060002060009150905080600001549080600101805461257f906132f1565b80601f01602080910402602001604051908101604052809291908181526020018280546125ab906132f1565b80156125f85780601f106125cd576101008083540402835291602001916125f8565b820191906000526020600020905b8154815290600101906020018083116125db57829003601f168201915b50505050509080600201805461260d906132f1565b80601f0160208091040260200160405190810160405280929190818152602001828054612639906132f1565b80156126865780601f1061265b57610100808354040283529160200191612686565b820191906000526020600020905b81548152906001019060200180831161266957829003601f168201915b50505050509080600301805461269b906132f1565b80601f01602080910402602001604051908101604052809291908181526020018280546126c7906132f1565b80156127145780601f106126e957610100808354040283529160200191612714565b820191906000526020600020905b8154815290600101906020018083116126f757829003601f168201915b505050505090806004018054612729906132f1565b80601f0160208091040260200160405190810160405280929190818152602001828054612755906132f1565b80156127a25780601f10612777576101008083540402835291602001916127a2565b820191906000526020600020905b81548152906001019060200180831161278557829003601f168201915b5050505050908060050154908060060160009054906101000a900473ffffffffffffffffffffffffffffffffffffffff16908060070154908060080160009054906101000a900460ff1690806009015490508a565b6127ff612942565b73ffffffffffffffffffffffffffffffffffffffff1661281d611793565b73ffffffffffffffffffffffffffffffffffffffff161461287c57612840612942565b6040517f118cdaa70000000000000000000000000000000000000000000000000000000081526004016128739190612fbd565b60405180910390fd5b565b60008060009054906101000a900473ffffffffffffffffffffffffffffffffffffffff169050816000806101000a81548173ffffffffffffffffffffffffffffffffffffffff021916908373ffffffffffffffffffffffffffffffffffffffff1602179055508173ffffffffffffffffffffffffffffffffffffffff168173ffffffffffffffffffffffffffffffffffffffff167f8be0079c531659141344cd1fd0a4f28419497f9722a3daafe3b4186f6b6457e060405160405180910390a35050565b600033905090565b6000604051905090565b600080fd5b600080fd5b600073ffffffffffffffffffffffffffffffffffffffff82169050919050565b60006129898261295e565b9050919050565b6129998161297e565b81146129a457600080fd5b50565b6000813590506129b681612990565b92915050565b6000602082840312156129d2576129d1612954565b5b60006129e0848285016129a7565b91505092915050565b6000819050919050565b6129fc816129e9565b82525050565b6000602082019050612a1760008301846129f3565b92915050565b612a26816129e9565b8114612a3157600080fd5b50565b600081359050612a4381612a1d565b92915050565b600060208284031215612a5f57612a5e612954565b5b6000612a6d84828501612a34565b91505092915050565b600081519050919050565b600082825260208201905092915050565b60005b83811015612ab0578082015181840152602081019050612a95565b60008484015250505050565b6000601f19601f8301169050919050565b6000612ad882612a76565b612ae28185612a81565b9350612af2818560208601612a92565b612afb81612abc565b840191505092915050565b612b0f8161297e565b82525050565b60008115159050919050565b612b2a81612b15565b82525050565b600060e0820190508181036000830152612b4a818a612acd565b90508181036020830152612b5e8189612acd565b90508181036040830152612b728188612acd565b9050612b8160608301876129f3565b612b8e60808301866129f3565b612b9b60a0830185612b06565b612ba860c0830184612b21565b98975050505050505050565b600081519050919050565b600082825260208201905092915050565b6000819050602082019050919050565b600082825260208201905092915050565b6000612bfc82612a76565b612c068185612be0565b9350612c16818560208601612a92565b612c1f81612abc565b840191505092915050565b612c33816129e9565b82525050565b612c428161297e565b82525050565b612c5181612b15565b82525050565b600060e0830160008301518482036000860152612c748282612bf1565b91505060208301518482036020860152612c8e8282612bf1565b91505060408301518482036040860152612ca88282612bf1565b9150506060830151612cbd6060860182612c2a565b506080830151612cd06080860182612c2a565b5060a0830151612ce360a0860182612c39565b5060c0830151612cf660c0860182612c48565b508091505092915050565b6000612d0d8383612c57565b905092915050565b6000602082019050919050565b6000612d2d82612bb4565b612d378185612bbf565b935083602082028501612d4985612bd0565b8060005b85811015612d855784840389528151612d668582612d01565b9450612d7183612d15565b925060208a01995050600181019050612d4d565b50829750879550505050505092915050565b60006020820190508181036000830152612db18184612d22565b905092915050565b600080fd5b600080fd5b7f4e487b7100000000000000000000000000000000000000000000000000000000600052604160045260246000fd5b612dfb82612abc565b810181811067ffffffffffffffff82111715612e1a57612e19612dc3565b5b80604052505050565b6000612e2d61294a565b9050612e398282612df2565b919050565b600067ffffffffffffffff821115612e5957612e58612dc3565b5b612e6282612abc565b9050602081019050919050565b82818337600083830152505050565b6000612e91612e8c84612e3e565b612e23565b905082815260208101848484011115612ead57612eac612dbe565b5b612eb8848285612e6f565b509392505050565b600082601f830112612ed557612ed4612db9565b5b8135612ee5848260208601612e7e565b91505092915050565b600080600080600060a08688031215612f0a57612f09612954565b5b600086013567ffffffffffffffff811115612f2857612f27612959565b5b612f3488828901612ec0565b955050602086013567ffffffffffffffff811115612f5557612f54612959565b5b612f6188828901612ec0565b945050604086013567ffffffffffffffff811115612f8257612f81612959565b5b612f8e88828901612ec0565b9350506060612f9f88828901612a34565b9250506080612fb088828901612a34565b9150509295509295909350565b6000602082019050612fd26000830184612b06565b92915050565b600060208284031215612fee57612fed612954565b5b600082013567ffffffffffffffff81111561300c5761300b612959565b5b61301884828501612ec0565b91505092915050565b60006020820190506130366000830184612b21565b92915050565b600061014082019050613052600083018d6129f3565b8181036020830152613064818c612acd565b90508181036040830152613078818b612acd565b9050818103606083015261308c818a612acd565b905081810360808301526130a08189612acd565b90506130af60a08301886129f3565b6130bc60c0830187612b06565b6130c960e08301866129f3565b6130d7610100830185612b21565b6130e56101208301846129f3565b9b9a5050505050505050505050565b600081519050919050565b600082825260208201905092915050565b6000819050602082019050919050565b600061312c8383612c2a565b60208301905092915050565b6000602082019050919050565b6000613150826130f4565b61315a81856130ff565b935061316583613110565b8060005b8381101561319657815161317d8882613120565b975061318883613138565b925050600181019050613169565b5085935050505092915050565b600060208201905081810360008301526131bd8184613145565b905092915050565b60008060008060008060c087890312156131e2576131e1612954565b5b600087013567ffffffffffffffff811115613200576131ff612959565b5b61320c89828a01612ec0565b965050602087013567ffffffffffffffff81111561322d5761322c612959565b5b61323989828a01612ec0565b955050604087013567ffffffffffffffff81111561325a57613259612959565b5b61326689828a01612ec0565b945050606087013567ffffffffffffffff81111561328757613286612959565b5b61329389828a01612ec0565b93505060806132a489828a01612a34565b92505060a06132b589828a01612a34565b9150509295509295509295565b7f4e487b7100000000000000000000000000000000000000000000000000000000600052602260045260246000fd5b6000600282049050600182168061330957607f821691505b60208210810361331c5761331b6132c2565b5b50919050565b60008190508160005260206000209050919050565b60006020601f8301049050919050565b600082821b905092915050565b6000600883026133847fffffffffffffffffffffffffffffffffffffffffffffffffffffffffffffffff82613347565b61338e8683613347565b95508019841693508086168417925050509392505050565b6000819050919050565b60006133cb6133c66133c1846129e9565b6133a6565b6129e9565b9050919050565b6000819050919050565b6133e5836133b0565b6133f96133f1826133d2565b848454613354565b825550505050565b600090565b61340e613401565b6134198184846133dc565b505050565b5b8181101561343d57613432600082613406565b60018101905061341f565b5050565b601f8211156134825761345381613322565b61345c84613337565b8101602085101561346b578190505b61347f61347785613337565b83018261341e565b50505b505050565b600082821c905092915050565b60006134a560001984600802613487565b1980831691505092915050565b60006134be8383613494565b9150826002028217905092915050565b6134d782612a76565b67ffffffffffffffff8111156134f0576134ef612dc3565b5b6134fa82546132f1565b613505828285613441565b600060209050601f8311600181146135385760008415613526578287015190505b61353085826134b2565b865550613598565b601f19841661354686613322565b60005b8281101561356e57848901518255600182019150602085019450602081019050613549565b8683101561358b5784890151613587601f891682613494565b8355505b6001600288020188555050505b505050505050565b7f4e487b7100000000000000000000000000000000000000000000000000000000600052601160045260246000fd5b60006135da826129e9565b91507fffffffffffffffffffffffffffffffffffffffffffffffffffffffffffffffff820361360c5761360b6135a0565b5b600182019050919050565b7f4e487b7100000000000000000000000000000000000000000000000000000000600052603260045260246000fd5b600081905092915050565b600061365c82612a76565b6136668185613646565b9350613676818560208601612a92565b80840191505092915050565b600061368e8284613651565b915081905092915050565b600060a0820190506136ae60008301886129f3565b81810360208301526136c08187612acd565b905081810360408301526136d48186612acd565b905081810360608301526136e88185612acd565b905081810360808301526136fc8184612acd565b9050969550505050505056fea26469706673582212204f3c2cae44783a6b86a7c000c527f0a257f0d84b7c10c9f4a310a513e5846df564736f6c63430008110033",
  "immutableReferences": {},
  "source": "pragma solidity ^0.8.17;\r\n\r\nimport \"./Ownable.sol\";\r\n//SPDX-License-Identifier: UNLICENSED\r\n\r\ncontract Registry is Ownable{\r\n\r\n    constructor() Ownable(msg.sender){}\r\n    \r\n    uint public propCount = 0;\r\n    uint holderCount = 0;\r\n    uint public transactionCount = 0;\r\n\r\n    // struct for property owner details\r\n    struct holder {\r\n        string name;\r\n        string tax_pin;\r\n        string email;\r\n        uint id_no;\r\n        uint contact;\r\n        address owner;\r\n        bool isExist;\r\n    }\r\n\r\n\r\n\r\n    //struct for property details\r\n    struct property {\r\n        uint id;\r\n        string name;\r\n        string location;\r\n        string holder_name;\r\n        string lr_no;\r\n        uint holder_id;\r\n        address _addr;\r\n        uint price;\r\n        bool sold;\r\n        uint timestamp;\r\n    }\r\n\r\n\r\n\r\n    // stores properties\r\n    mapping(uint => property) public properties;\r\n    mapping(uint => property) public transactions;\r\n\r\n    // stores holders\r\n    holder [] public holders;\r\n\r\n\r\n    // event that listens to addition of a new property into the properties array\r\n    event NewProperty(uint propertyId, string name, string location, string holder_name, string lr_no);\r\n    event LogApprovedForTransaction(uint propertyId);\r\n    event LogSold(uint propertyId);\r\n\r\n\r\n\r\n    // a lookup of how many properties a holder has\r\n    mapping (address => uint) public holderToPropertyCount;\r\n    // a lookup of property owners by their property id\r\n    mapping (uint => address) public propertyToHolder;\r\n    // a lookup of validatorDetails by their addresses\r\n    mapping (string => bool) public regToAvailable;\r\n\r\n    mapping (address => property) public publicProperty;\r\n    mapping (address => holder) public holderdetails;\r\n\r\n    // registers holders\r\n    function regHolders(string memory name, string memory tax_pin, string memory email,uint id_no, uint contact) public {\r\n        holderCount++;\r\n        holders.push(holder(name,tax_pin,email, id_no,contact,msg.sender,true));\r\n        holderdetails[msg.sender]=holder(name,tax_pin,email,id_no,contact,msg.sender,true);\r\n    }\r\n\r\n    // returns holder details\r\n    function getHolders() public view returns (holder[] memory){\r\n        return holders;\r\n    }\r\n\r\n\r\n\r\n    // registers property by their owners\r\n    function regProperty(string memory name, string memory location, string memory holder_name, string memory lr_no, uint holder_id,uint price) public {\r\n        //push each property to the properties array\r\n        require(!regToAvailable[lr_no]);\r\n        bool pd = true;\r\n        // add property count\r\n        propCount++;\r\n        transactionCount++;\r\n        uint timestamp = block.timestamp;\r\n        properties[propCount] = property(propCount, name, location, holder_name, lr_no, holder_id, msg.sender,price,pd, timestamp);\r\n        transactions[transactionCount] = property(propCount, name, location, holder_name, lr_no, holder_id, msg.sender,price,pd, timestamp);\r\n\r\n\r\n        regToAvailable[lr_no] = true;\r\n        holderToPropertyCount[msg.sender]++;\r\n\r\n        emit NewProperty(propCount, name, location, holder_name, lr_no);\r\n\r\n    }\r\n\r\n\r\n    // function that gets all properties by their owners address\r\n    function getPropertyByHolder(address _holder) external view returns(uint[] memory) {\r\n        uint[] memory result = new uint[] (holderToPropertyCount[_holder]);\r\n        uint counter = 0;\r\n\r\n        //loops through the holders array checking each holder and the properties they own and adds a counter for each property a holder has\r\n        for (uint i = 0; i < holders.length; i++) {\r\n            if(propertyToHolder[i] == _holder) {\r\n                result[counter] = i;\r\n                counter++;\r\n            }\r\n        }\r\n        return result;\r\n    }\r\n\r\n    function buyProperty(uint _propertyId) public payable {\r\n        property memory _land= properties[_propertyId];\r\n        address _seller = _land._addr;\r\n        // Require that the land is for sale\r\n        require(!_land.sold);\r\n        // Require that the buyer is not the seller\r\n        require(_seller != msg.sender);\r\n        // Ensure price is correct\r\n        require(msg.value >= _land.price);\r\n        // Update the product\r\n        _land._addr = msg.sender;\r\n\r\n        _land.sold = true;\r\n\r\n        properties[_propertyId] = _land;\r\n        // Send money\r\n        payable(_seller).transfer(msg.value);\r\n        bool pd = false;\r\n        // Transfer property ownership\r\n        _land.timestamp = block.timestamp;\r\n        transactionCount++;\r\n        transactions[transactionCount] = property(transactionCount, _land.name, _land.location, _land.holder_name, _land.lr_no, _land.holder_id, msg.sender,_land.price,pd, block.timestamp);\r\n        emit LogSold(_propertyId);\r\n    }\r\n\r\n    function sellProperty (uint _propertyId) public {\r\n        property memory _land= properties[_propertyId];\r\n        // require that the seller is the land owner\r\n        require(msg.sender == _land._addr);\r\n        // change the owner of the land to the blockchain address\r\n        _land.sold = false;\r\n\r\n        properties[_propertyId] = _land;\r\n    }\r\n\r\n\r\n\r\n}\r\n",
  "sourcePath": "C:\\Users\\LENOVO\\Desktop\\projects\\land-registry\\contracts\\registry.sol",
  "compiler": {
    "name": "solc",
    "version": "0.8.17+commit.8df45f5f.Emscripten.clang"
  },
  "schemaVersion": "3.4.14",
  "updatedAt": "2023-09-18T08:19:52.623Z",
  "networkType": "ethereum",
  "devdoc": {
    "errors": {
      "OwnableInvalidOwner(address)": [
        {
          "details": "The owner is not a valid owner account. (eg. `address(0)`)"
        }
      ],
      "OwnableUnauthorizedAccount(address)": [
        {
          "details": "The caller account is not authorized to perform an operation."
        }
      ]
    },
    "kind": "dev",
    "methods": {
      "owner()": {
        "details": "Returns the address of the current owner."
      },
      "renounceOwnership()": {
        "details": "Leaves the contract without owner. It will not be possible to call `onlyOwner` functions. Can only be called by the current owner. NOTE: Renouncing ownership will leave the contract without an owner, thereby disabling any functionality that is only available to the owner."
      },
      "transferOwnership(address)": {
        "details": "Transfers ownership of the contract to a new account (`newOwner`). Can only be called by the current owner."
      }
    },
    "version": 1
  },
  "userdoc": {
    "kind": "user",
    "methods": {},
    "version": 1
  }
}