{
  "contractName": "Registry",
  "abi": [
    {
      "inputs": [],
      "stateMutability": "nonpayable",
      "type": "constructor"
    },
    {
      "inputs": [
        {
          "internalType": "address",
          "name": "owner",
          "type": "address"
        }
      ],
      "name": "OwnableInvalidOwner",
      "type": "error"
    },
    {
      "inputs": [
        {
          "internalType": "address",
          "name": "account",
          "type": "address"
        }
      ],
      "name": "OwnableUnauthorizedAccount",
      "type": "error"
    },
    {
      "anonymous": false,
      "inputs": [
        {
          "indexed": false,
          "internalType": "uint256",
          "name": "propertyId",
          "type": "uint256"
        }
      ],
      "name": "LogApprovedForTransaction",
      "type": "event"
    },
    {
      "anonymous": false,
      "inputs": [
        {
          "indexed": false,
          "internalType": "uint256",
          "name": "propertyId",
          "type": "uint256"
        }
      ],
      "name": "LogSold",
      "type": "event"
    },
    {
      "anonymous": false,
      "inputs": [
        {
          "indexed": false,
          "internalType": "uint256",
          "name": "propertyId",
          "type": "uint256"
        },
        {
          "indexed": false,
          "internalType": "string",
          "name": "name",
          "type": "string"
        },
        {
          "indexed": false,
          "internalType": "string",
          "name": "location",
          "type": "string"
        },
        {
          "indexed": false,
          "internalType": "string",
          "name": "holder_name",
          "type": "string"
        },
        {
          "indexed": false,
          "internalType": "string",
          "name": "lr_no",
          "type": "string"
        }
      ],
      "name": "NewProperty",
      "type": "event"
    },
    {
      "anonymous": false,
      "inputs": [
        {
          "indexed": true,
          "internalType": "address",
          "name": "previousOwner",
          "type": "address"
        },
        {
          "indexed": true,
          "internalType": "address",
          "name": "newOwner",
          "type": "address"
        }
      ],
      "name": "OwnershipTransferred",
      "type": "event"
    },
    {
      "inputs": [
        {
          "internalType": "address",
          "name": "",
          "type": "address"
        }
      ],
      "name": "holderToPropertyCount",
      "outputs": [
        {
          "internalType": "uint256",
          "name": "",
          "type": "uint256"
        }
      ],
      "stateMutability": "view",
      "type": "function",
      "constant": true
    },
    {
      "inputs": [
        {
          "internalType": "address",
          "name": "",
          "type": "address"
        }
      ],
      "name": "holderdetails",
      "outputs": [
        {
          "internalType": "string",
          "name": "name",
          "type": "string"
        },
        {
          "internalType": "string",
          "name": "tax_pin",
          "type": "string"
        },
        {
          "internalType": "string",
          "name": "email",
          "type": "string"
        },
        {
          "internalType": "uint256",
          "name": "id_no",
          "type": "uint256"
        },
        {
          "internalType": "uint256",
          "name": "contact",
          "type": "uint256"
        },
        {
          "internalType": "address",
          "name": "owner",
          "type": "address"
        },
        {
          "internalType": "bool",
          "name": "isExist",
          "type": "bool"
        }
      ],
      "stateMutability": "view",
      "type": "function",
      "constant": true
    },
    {
      "inputs": [
        {
          "internalType": "uint256",
          "name": "",
          "type": "uint256"
        }
      ],
      "name": "holders",
      "outputs": [
        {
          "internalType": "string",
          "name": "name",
          "type": "string"
        },
        {
          "internalType": "string",
          "name": "tax_pin",
          "type": "string"
        },
        {
          "internalType": "string",
          "name": "email",
          "type": "string"
        },
        {
          "internalType": "uint256",
          "name": "id_no",
          "type": "uint256"
        },
        {
          "internalType": "uint256",
          "name": "contact",
          "type": "uint256"
        },
        {
          "internalType": "address",
          "name": "owner",
          "type": "address"
        },
        {
          "internalType": "bool",
          "name": "isExist",
          "type": "bool"
        }
      ],
      "stateMutability": "view",
      "type": "function",
      "constant": true
    },
    {
      "inputs": [],
      "name": "owner",
      "outputs": [
        {
          "internalType": "address",
          "name": "",
          "type": "address"
        }
      ],
      "stateMutability": "view",
      "type": "function",
      "constant": true
    },
    {
      "inputs": [],
      "name": "propCount",
      "outputs": [
        {
          "internalType": "uint256",
          "name": "",
          "type": "uint256"
        }
      ],
      "stateMutability": "view",
      "type": "function",
      "constant": true
    },
    {
      "inputs": [
        {
          "internalType": "uint256",
          "name": "",
          "type": "uint256"
        }
      ],
      "name": "properties",
      "outputs": [
        {
          "internalType": "uint256",
          "name": "id",
          "type": "uint256"
        },
        {
          "internalType": "string",
          "name": "name",
          "type": "string"
        },
        {
          "internalType": "string",
          "name": "location",
          "type": "string"
        },
        {
          "internalType": "string",
          "name": "holder_name",
          "type": "string"
        },
        {
          "internalType": "string",
          "name": "lr_no",
          "type": "string"
        },
        {
          "internalType": "uint256",
          "name": "holder_id",
          "type": "uint256"
        },
        {
          "internalType": "address",
          "name": "_addr",
          "type": "address"
        },
        {
          "internalType": "uint256",
          "name": "price",
          "type": "uint256"
        },
        {
          "internalType": "bool",
          "name": "sold",
          "type": "bool"
        },
        {
          "internalType": "uint256",
          "name": "timestamp",
          "type": "uint256"
        }
      ],
      "stateMutability": "view",
      "type": "function",
      "constant": true
    },
    {
      "inputs": [
        {
          "internalType": "uint256",
          "name": "",
          "type": "uint256"
        }
      ],
      "name": "propertyToHolder",
      "outputs": [
        {
          "internalType": "address",
          "name": "",
          "type": "address"
        }
      ],
      "stateMutability": "view",
      "type": "function",
      "constant": true
    },
    {
      "inputs": [
        {
          "internalType": "address",
          "name": "",
          "type": "address"
        }
      ],
      "name": "publicProperty",
      "outputs": [
        {
          "internalType": "uint256",
          "name": "id",
          "type": "uint256"
        },
        {
          "internalType": "string",
          "name": "name",
          "type": "string"
        },
        {
          "internalType": "string",
          "name": "location",
          "type": "string"
        },
        {
          "internalType": "string",
          "name": "holder_name",
          "type": "string"
        },
        {
          "internalType": "string",
          "name": "lr_no",
          "type": "string"
        },
        {
          "internalType": "uint256",
          "name": "holder_id",
          "type": "uint256"
        },
        {
          "internalType": "address",
          "name": "_addr",
          "type": "address"
        },
        {
          "internalType": "uint256",
          "name": "price",
          "type": "uint256"
        },
        {
          "internalType": "bool",
          "name": "sold",
          "type": "bool"
        },
        {
          "internalType": "uint256",
          "name": "timestamp",
          "type": "uint256"
        }
      ],
      "stateMutability": "view",
      "type": "function",
      "constant": true
    },
    {
      "inputs": [
        {
          "internalType": "string",
          "name": "",
          "type": "string"
        }
      ],
      "name": "regToAvailable",
      "outputs": [
        {
          "internalType": "bool",
          "name": "",
          "type": "bool"
        }
      ],
      "stateMutability": "view",
      "type": "function",
      "constant": true
    },
    {
      "inputs": [],
      "name": "renounceOwnership",
      "outputs": [],
      "stateMutability": "nonpayable",
      "type": "function"
    },
    {
      "inputs": [],
      "name": "transactionCount",
      "outputs": [
        {
          "internalType": "uint256",
          "name": "",
          "type": "uint256"
        }
      ],
      "stateMutability": "view",
      "type": "function",
      "constant": true
    },
    {
      "inputs": [
        {
          "internalType": "uint256",
          "name": "",
          "type": "uint256"
        }
      ],
      "name": "transactions",
      "outputs": [
        {
          "internalType": "uint256",
          "name": "id",
          "type": "uint256"
        },
        {
          "internalType": "string",
          "name": "name",
          "type": "string"
        },
        {
          "internalType": "string",
          "name": "location",
          "type": "string"
        },
        {
          "internalType": "string",
          "name": "holder_name",
          "type": "string"
        },
        {
          "internalType": "string",
          "name": "lr_no",
          "type": "string"
        },
        {
          "internalType": "uint256",
          "name": "holder_id",
          "type": "uint256"
        },
        {
          "internalType": "address",
          "name": "_addr",
          "type": "address"
        },
        {
          "internalType": "uint256",
          "name": "price",
          "type": "uint256"
        },
        {
          "internalType": "bool",
          "name": "sold",
          "type": "bool"
        },
        {
          "internalType": "uint256",
          "name": "timestamp",
          "type": "uint256"
        }
      ],
      "stateMutability": "view",
      "type": "function",
      "constant": true
    },
    {
      "inputs": [
        {
          "internalType": "address",
          "name": "newOwner",
          "type": "address"
        }
      ],
      "name": "transferOwnership",
      "outputs": [],
      "stateMutability": "nonpayable",
      "type": "function"
    },
    {
      "inputs": [
        {
          "internalType": "string",
          "name": "name",
          "type": "string"
        },
        {
          "internalType": "string",
          "name": "tax_pin",
          "type": "string"
        },
        {
          "internalType": "string",
          "name": "email",
          "type": "string"
        },
        {
          "internalType": "uint256",
          "name": "id_no",
          "type": "uint256"
        },
        {
          "internalType": "uint256",
          "name": "contact",
          "type": "uint256"
        }
      ],
      "name": "regHolders",
      "outputs": [],
      "stateMutability": "nonpayable",
      "type": "function"
    },
    {
      "inputs": [],
      "name": "getHolders",
      "outputs": [
        {
          "components": [
            {
              "internalType": "string",
              "name": "name",
              "type": "string"
            },
            {
              "internalType": "string",
              "name": "tax_pin",
              "type": "string"
            },
            {
              "internalType": "string",
              "name": "email",
              "type": "string"
            },
            {
              "internalType": "uint256",
              "name": "id_no",
              "type": "uint256"
            },
            {
              "internalType": "uint256",
              "name": "contact",
              "type": "uint256"
            },
            {
              "internalType": "address",
              "name": "owner",
              "type": "address"
            },
            {
              "internalType": "bool",
              "name": "isExist",
              "type": "bool"
            }
          ],
          "internalType": "struct Registry.holder[]",
          "name": "",
          "type": "tuple[]"
        }
      ],
      "stateMutability": "view",
      "type": "function",
      "constant": true
    },
    {
      "inputs": [
        {
          "internalType": "string",
          "name": "name",
          "type": "string"
        },
        {
          "internalType": "string",
          "name": "location",
          "type": "string"
        },
        {
          "internalType": "string",
          "name": "holder_name",
          "type": "string"
        },
        {
          "internalType": "string",
          "name": "lr_no",
          "type": "string"
        },
        {
          "internalType": "uint256",
          "name": "holder_id",
          "type": "uint256"
        },
        {
          "internalType": "uint256",
          "name": "price",
          "type": "uint256"
        }
      ],
      "name": "regProperty",
      "outputs": [],
      "stateMutability": "nonpayable",
      "type": "function"
    },
    {
      "inputs": [
        {
          "internalType": "address",
          "name": "_holder",
          "type": "address"
        }
      ],
      "name": "getPropertyByHolder",
      "outputs": [
        {
          "internalType": "uint256[]",
          "name": "",
          "type": "uint256[]"
        }
      ],
      "stateMutability": "view",
      "type": "function",
      "constant": true
    },
    {
      "inputs": [
        {
          "internalType": "uint256",
          "name": "_propertyId",
          "type": "uint256"
        }
      ],
      "name": "buyProperty",
      "outputs": [],
      "stateMutability": "payable",
      "type": "function",
      "payable": true
    },
    {
      "inputs": [
        {
          "internalType": "uint256",
          "name": "_propertyId",
          "type": "uint256"
        }
      ],
      "name": "sellProperty",
      "outputs": [],
      "stateMutability": "view",
      "type": "function",
      "constant": true
    }
  ],
  "bytecode": "0x60806040526000600155600060025560006003553480156200002057600080fd5b503362000033816200003a60201b60201c565b50620000fe565b60008060009054906101000a900473ffffffffffffffffffffffffffffffffffffffff169050816000806101000a81548173ffffffffffffffffffffffffffffffffffffffff021916908373ffffffffffffffffffffffffffffffffffffffff1602179055508173ffffffffffffffffffffffffffffffffffffffff168173ffffffffffffffffffffffffffffffffffffffff167f8be0079c531659141344cd1fd0a4f28419497f9722a3daafe3b4186f6b6457e060405160405180910390a35050565b61363a806200010e6000396000f3fe6080604052600436106101145760003560e01c80638f6d7a88116100a0578063d0cec04511610064578063d0cec045146103b3578063dffc9782146103f9578063f2fde38b1461043c578063f6941d5614610465578063f7b10808146104a257610114565b80638f6d7a881461029f5780639ace38c2146102dc578063ac0bdd3414610322578063ac91e6471461035f578063b77bf6001461038857610114565b80635fe8e7cc116100e75780635fe8e7cc146101ed57806360547e07146102185780636fa830a614610241578063715018a61461025d5780638da5cb5b1461027457610114565b8063068a684e14610119578063094157fa146101565780632a11ced01461017f57806333bc7bf0146101c2575b600080fd5b34801561012557600080fd5b50610140600480360381019061013b91906128b8565b6104e8565b60405161014d91906128fe565b60405180910390f35b34801561016257600080fd5b5061017d60048036038101906101789190612945565b610500565b005b34801561018b57600080fd5b506101a660048036038101906101a19190612945565b610856565b6040516101b99796959493929190612a2c565b60405180910390f35b3480156101ce57600080fd5b506101d7610a6d565b6040516101e491906128fe565b60405180910390f35b3480156101f957600080fd5b50610202610a73565b60405161020f9190612c93565b60405180910390f35b34801561022457600080fd5b5061023f600480360381019061023a9190612dea565b610d0d565b005b61025b60048036038101906102569190612945565b610fad565b005b34801561026957600080fd5b5061027261167f565b005b34801561028057600080fd5b50610289611693565b6040516102969190612eb9565b60405180910390f35b3480156102ab57600080fd5b506102c660048036038101906102c19190612ed4565b6116bc565b6040516102d39190612f1d565b60405180910390f35b3480156102e857600080fd5b5061030360048036038101906102fe9190612945565b6116f2565b6040516103199a99989796959493929190612f38565b60405180910390f35b34801561032e57600080fd5b50610349600480360381019061034491906128b8565b611993565b604051610356919061309f565b60405180910390f35b34801561036b57600080fd5b50610386600480360381019061038191906130c1565b611ae5565b005b34801561039457600080fd5b5061039d611eeb565b6040516103aa91906128fe565b60405180910390f35b3480156103bf57600080fd5b506103da60048036038101906103d591906128b8565b611ef1565b6040516103f09a99989796959493929190612f38565b60405180910390f35b34801561040557600080fd5b50610420600480360381019061041b91906128b8565b612192565b6040516104339796959493929190612a2c565b60405180910390f35b34801561044857600080fd5b50610463600480360381019061045e91906128b8565b612399565b005b34801561047157600080fd5b5061048c60048036038101906104879190612945565b61241f565b6040516104999190612eb9565b60405180910390f35b3480156104ae57600080fd5b506104c960048036038101906104c49190612945565b612452565b6040516104df9a99989796959493929190612f38565b60405180910390f35b60076020528060005260406000206000915090505481565b600060046000838152602001908152602001600020604051806101400160405290816000820154815260200160018201805461053b906131ed565b80601f0160208091040260200160405190810160405280929190818152602001828054610567906131ed565b80156105b45780601f10610589576101008083540402835291602001916105b4565b820191906000526020600020905b81548152906001019060200180831161059757829003601f168201915b505050505081526020016002820180546105cd906131ed565b80601f01602080910402602001604051908101604052809291908181526020018280546105f9906131ed565b80156106465780601f1061061b57610100808354040283529160200191610646565b820191906000526020600020905b81548152906001019060200180831161062957829003601f168201915b5050505050815260200160038201805461065f906131ed565b80601f016020809104026020016040519081016040528092919081815260200182805461068b906131ed565b80156106d85780601f106106ad576101008083540402835291602001916106d8565b820191906000526020600020905b8154815290600101906020018083116106bb57829003601f168201915b505050505081526020016004820180546106f1906131ed565b80601f016020809104026020016040519081016040528092919081815260200182805461071d906131ed565b801561076a5780601f1061073f5761010080835404028352916020019161076a565b820191906000526020600020905b81548152906001019060200180831161074d57829003601f168201915b50505050508152602001600582015481526020016006820160009054906101000a900473ffffffffffffffffffffffffffffffffffffffff1673ffffffffffffffffffffffffffffffffffffffff1673ffffffffffffffffffffffffffffffffffffffff168152602001600782015481526020016008820160009054906101000a900460ff1615151515815260200160098201548152505090508060c0015173ffffffffffffffffffffffffffffffffffffffff163373ffffffffffffffffffffffffffffffffffffffff161461084057600080fd5b6000816101000190151590811515815250505050565b6006818154811061086657600080fd5b9060005260206000209060060201600091509050806000018054610889906131ed565b80601f01602080910402602001604051908101604052809291908181526020018280546108b5906131ed565b80156109025780601f106108d757610100808354040283529160200191610902565b820191906000526020600020905b8154815290600101906020018083116108e557829003601f168201915b505050505090806001018054610917906131ed565b80601f0160208091040260200160405190810160405280929190818152602001828054610943906131ed565b80156109905780601f1061096557610100808354040283529160200191610990565b820191906000526020600020905b81548152906001019060200180831161097357829003601f168201915b5050505050908060020180546109a5906131ed565b80601f01602080910402602001604051908101604052809291908181526020018280546109d1906131ed565b8015610a1e5780601f106109f357610100808354040283529160200191610a1e565b820191906000526020600020905b815481529060010190602001808311610a0157829003601f168201915b5050505050908060030154908060040154908060050160009054906101000a900473ffffffffffffffffffffffffffffffffffffffff16908060050160149054906101000a900460ff16905087565b60015481565b60606006805480602002602001604051908101604052809291908181526020016000905b82821015610d0457838290600052602060002090600602016040518060e0016040529081600082018054610aca906131ed565b80601f0160208091040260200160405190810160405280929190818152602001828054610af6906131ed565b8015610b435780601f10610b1857610100808354040283529160200191610b43565b820191906000526020600020905b815481529060010190602001808311610b2657829003601f168201915b50505050508152602001600182018054610b5c906131ed565b80601f0160208091040260200160405190810160405280929190818152602001828054610b88906131ed565b8015610bd55780601f10610baa57610100808354040283529160200191610bd5565b820191906000526020600020905b815481529060010190602001808311610bb857829003601f168201915b50505050508152602001600282018054610bee906131ed565b80601f0160208091040260200160405190810160405280929190818152602001828054610c1a906131ed565b8015610c675780601f10610c3c57610100808354040283529160200191610c67565b820191906000526020600020905b815481529060010190602001808311610c4a57829003601f168201915b5050505050815260200160038201548152602001600482015481526020016005820160009054906101000a900473ffffffffffffffffffffffffffffffffffffffff1673ffffffffffffffffffffffffffffffffffffffff1673ffffffffffffffffffffffffffffffffffffffff1681526020016005820160149054906101000a900460ff16151515158152505081526020019060010190610a97565b50505050905090565b60026000815480929190610d209061324d565b919050555060066040518060e001604052808781526020018681526020018581526020018481526020018381526020013373ffffffffffffffffffffffffffffffffffffffff1681526020016001151581525090806001815401808255809150506001900390600052602060002090600602016000909190919091506000820151816000019081610db19190613441565b506020820151816001019081610dc79190613441565b506040820151816002019081610ddd9190613441565b50606082015181600301556080820151816004015560a08201518160050160006101000a81548173ffffffffffffffffffffffffffffffffffffffff021916908373ffffffffffffffffffffffffffffffffffffffff16021790555060c08201518160050160146101000a81548160ff02191690831515021790555050506040518060e001604052808681526020018581526020018481526020018381526020018281526020013373ffffffffffffffffffffffffffffffffffffffff16815260200160011515815250600b60003373ffffffffffffffffffffffffffffffffffffffff1673ffffffffffffffffffffffffffffffffffffffff1681526020019081526020016000206000820151816000019081610efb9190613441565b506020820151816001019081610f119190613441565b506040820151816002019081610f279190613441565b50606082015181600301556080820151816004015560a08201518160050160006101000a81548173ffffffffffffffffffffffffffffffffffffffff021916908373ffffffffffffffffffffffffffffffffffffffff16021790555060c08201518160050160146101000a81548160ff0219169083151502179055509050505050505050565b6000600460008381526020019081526020016000206040518061014001604052908160008201548152602001600182018054610fe8906131ed565b80601f0160208091040260200160405190810160405280929190818152602001828054611014906131ed565b80156110615780601f1061103657610100808354040283529160200191611061565b820191906000526020600020905b81548152906001019060200180831161104457829003601f168201915b5050505050815260200160028201805461107a906131ed565b80601f01602080910402602001604051908101604052809291908181526020018280546110a6906131ed565b80156110f35780601f106110c8576101008083540402835291602001916110f3565b820191906000526020600020905b8154815290600101906020018083116110d657829003601f168201915b5050505050815260200160038201805461110c906131ed565b80601f0160208091040260200160405190810160405280929190818152602001828054611138906131ed565b80156111855780601f1061115a57610100808354040283529160200191611185565b820191906000526020600020905b81548152906001019060200180831161116857829003601f168201915b5050505050815260200160048201805461119e906131ed565b80601f01602080910402602001604051908101604052809291908181526020018280546111ca906131ed565b80156112175780601f106111ec57610100808354040283529160200191611217565b820191906000526020600020905b8154815290600101906020018083116111fa57829003601f168201915b50505050508152602001600582015481526020016006820160009054906101000a900473ffffffffffffffffffffffffffffffffffffffff1673ffffffffffffffffffffffffffffffffffffffff1673ffffffffffffffffffffffffffffffffffffffff168152602001600782015481526020016008820160009054906101000a900460ff16151515158152602001600982015481525050905060008160c001519050816101000151156112ca57600080fd5b3373ffffffffffffffffffffffffffffffffffffffff168173ffffffffffffffffffffffffffffffffffffffff160361130257600080fd5b8160e0015134101561131357600080fd5b338260c0019073ffffffffffffffffffffffffffffffffffffffff16908173ffffffffffffffffffffffffffffffffffffffff168152505060018261010001901515908115158152505081600460008581526020019081526020016000206000820151816000015560208201518160010190816113909190613441565b5060408201518160020190816113a69190613441565b5060608201518160030190816113bc9190613441565b5060808201518160040190816113d29190613441565b5060a0820151816005015560c08201518160060160006101000a81548173ffffffffffffffffffffffffffffffffffffffff021916908373ffffffffffffffffffffffffffffffffffffffff16021790555060e082015181600701556101008201518160080160006101000a81548160ff02191690831515021790555061012082015181600901559050508073ffffffffffffffffffffffffffffffffffffffff166108fc349081150290604051600060405180830381858888f193505050501580156114a3573d6000803e3d6000fd5b5060004283610120018181525050600360008154809291906114c49061324d565b91905055506040518061014001604052806003548152602001846020015181526020018460400151815260200184606001518152602001846080015181526020018460a0015181526020013373ffffffffffffffffffffffffffffffffffffffff1681526020018460e0015181526020018215158152602001428152506005600060035481526020019081526020016000206000820151816000015560208201518160010190816115759190613441565b50604082015181600201908161158b9190613441565b5060608201518160030190816115a19190613441565b5060808201518160040190816115b79190613441565b5060a0820151816005015560c08201518160060160006101000a81548173ffffffffffffffffffffffffffffffffffffffff021916908373ffffffffffffffffffffffffffffffffffffffff16021790555060e082015181600701556101008201518160080160006101000a81548160ff02191690831515021790555061012082015181600901559050507fe64ca8c671e48636f85f3008c1dd538e36bfa74fb6f2790b56b72fcc33b879ef8460405161167191906128fe565b60405180910390a150505050565b6116876126f3565b611691600061277a565b565b60008060009054906101000a900473ffffffffffffffffffffffffffffffffffffffff16905090565b6009818051602081018201805184825260208301602085012081835280955050505050506000915054906101000a900460ff1681565b600560205280600052604060002060009150905080600001549080600101805461171b906131ed565b80601f0160208091040260200160405190810160405280929190818152602001828054611747906131ed565b80156117945780601f1061176957610100808354040283529160200191611794565b820191906000526020600020905b81548152906001019060200180831161177757829003601f168201915b5050505050908060020180546117a9906131ed565b80601f01602080910402602001604051908101604052809291908181526020018280546117d5906131ed565b80156118225780601f106117f757610100808354040283529160200191611822565b820191906000526020600020905b81548152906001019060200180831161180557829003601f168201915b505050505090806003018054611837906131ed565b80601f0160208091040260200160405190810160405280929190818152602001828054611863906131ed565b80156118b05780601f10611885576101008083540402835291602001916118b0565b820191906000526020600020905b81548152906001019060200180831161189357829003601f168201915b5050505050908060040180546118c5906131ed565b80601f01602080910402602001604051908101604052809291908181526020018280546118f1906131ed565b801561193e5780601f106119135761010080835404028352916020019161193e565b820191906000526020600020905b81548152906001019060200180831161192157829003601f168201915b5050505050908060050154908060060160009054906101000a900473ffffffffffffffffffffffffffffffffffffffff16908060070154908060080160009054906101000a900460ff1690806009015490508a565b60606000600760008473ffffffffffffffffffffffffffffffffffffffff1673ffffffffffffffffffffffffffffffffffffffff1681526020019081526020016000205467ffffffffffffffff8111156119f0576119ef612cbf565b5b604051908082528060200260200182016040528015611a1e5781602001602082028036833780820191505090505b5090506000805b600680549050811015611ada578473ffffffffffffffffffffffffffffffffffffffff166008600083815260200190815260200160002060009054906101000a900473ffffffffffffffffffffffffffffffffffffffff1673ffffffffffffffffffffffffffffffffffffffff1603611ac75780838381518110611aac57611aab613513565b5b6020026020010181815250508180611ac39061324d565b9250505b8080611ad29061324d565b915050611a25565b508192505050919050565b600983604051611af5919061357e565b908152602001604051809103902060009054906101000a900460ff1615611b1b57600080fd5b600060016000815480929190611b309061324d565b919050555060036000815480929190611b489061324d565b9190505550600042905060405180610140016040528060015481526020018981526020018881526020018781526020018681526020018581526020013373ffffffffffffffffffffffffffffffffffffffff168152602001848152602001831515815260200182815250600460006001548152602001908152602001600020600082015181600001556020820151816001019081611be69190613441565b506040820151816002019081611bfc9190613441565b506060820151816003019081611c129190613441565b506080820151816004019081611c289190613441565b5060a0820151816005015560c08201518160060160006101000a81548173ffffffffffffffffffffffffffffffffffffffff021916908373ffffffffffffffffffffffffffffffffffffffff16021790555060e082015181600701556101008201518160080160006101000a81548160ff021916908315150217905550610120820151816009015590505060405180610140016040528060015481526020018981526020018881526020018781526020018681526020018581526020013373ffffffffffffffffffffffffffffffffffffffff168152602001848152602001831515815260200182815250600560006003548152602001908152602001600020600082015181600001556020820151816001019081611d479190613441565b506040820151816002019081611d5d9190613441565b506060820151816003019081611d739190613441565b506080820151816004019081611d899190613441565b5060a0820151816005015560c08201518160060160006101000a81548173ffffffffffffffffffffffffffffffffffffffff021916908373ffffffffffffffffffffffffffffffffffffffff16021790555060e082015181600701556101008201518160080160006101000a81548160ff02191690831515021790555061012082015181600901559050506001600986604051611e26919061357e565b908152602001604051809103902060006101000a81548160ff021916908315150217905550600760003373ffffffffffffffffffffffffffffffffffffffff1673ffffffffffffffffffffffffffffffffffffffff1681526020019081526020016000206000815480929190611e9b9061324d565b91905055507f34396a3e03f105e584dbe5a2da726aeb5566eb3d14f4688a97f201e5b335272360015489898989604051611ed9959493929190613595565b60405180910390a15050505050505050565b60035481565b600a602052806000526040600020600091509050806000015490806001018054611f1a906131ed565b80601f0160208091040260200160405190810160405280929190818152602001828054611f46906131ed565b8015611f935780601f10611f6857610100808354040283529160200191611f93565b820191906000526020600020905b815481529060010190602001808311611f7657829003601f168201915b505050505090806002018054611fa8906131ed565b80601f0160208091040260200160405190810160405280929190818152602001828054611fd4906131ed565b80156120215780601f10611ff657610100808354040283529160200191612021565b820191906000526020600020905b81548152906001019060200180831161200457829003601f168201915b505050505090806003018054612036906131ed565b80601f0160208091040260200160405190810160405280929190818152602001828054612062906131ed565b80156120af5780601f10612084576101008083540402835291602001916120af565b820191906000526020600020905b81548152906001019060200180831161209257829003601f168201915b5050505050908060040180546120c4906131ed565b80601f01602080910402602001604051908101604052809291908181526020018280546120f0906131ed565b801561213d5780601f106121125761010080835404028352916020019161213d565b820191906000526020600020905b81548152906001019060200180831161212057829003601f168201915b5050505050908060050154908060060160009054906101000a900473ffffffffffffffffffffffffffffffffffffffff16908060070154908060080160009054906101000a900460ff1690806009015490508a565b600b6020528060005260406000206000915090508060000180546121b5906131ed565b80601f01602080910402602001604051908101604052809291908181526020018280546121e1906131ed565b801561222e5780601f106122035761010080835404028352916020019161222e565b820191906000526020600020905b81548152906001019060200180831161221157829003601f168201915b505050505090806001018054612243906131ed565b80601f016020809104026020016040519081016040528092919081815260200182805461226f906131ed565b80156122bc5780601f10612291576101008083540402835291602001916122bc565b820191906000526020600020905b81548152906001019060200180831161229f57829003601f168201915b5050505050908060020180546122d1906131ed565b80601f01602080910402602001604051908101604052809291908181526020018280546122fd906131ed565b801561234a5780601f1061231f5761010080835404028352916020019161234a565b820191906000526020600020905b81548152906001019060200180831161232d57829003601f168201915b5050505050908060030154908060040154908060050160009054906101000a900473ffffffffffffffffffffffffffffffffffffffff16908060050160149054906101000a900460ff16905087565b6123a16126f3565b600073ffffffffffffffffffffffffffffffffffffffff168173ffffffffffffffffffffffffffffffffffffffff16036124135760006040517f1e4fbdf700000000000000000000000000000000000000000000000000000000815260040161240a9190612eb9565b60405180910390fd5b61241c8161277a565b50565b60086020528060005260406000206000915054906101000a900473ffffffffffffffffffffffffffffffffffffffff1681565b600460205280600052604060002060009150905080600001549080600101805461247b906131ed565b80601f01602080910402602001604051908101604052809291908181526020018280546124a7906131ed565b80156124f45780601f106124c9576101008083540402835291602001916124f4565b820191906000526020600020905b8154815290600101906020018083116124d757829003601f168201915b505050505090806002018054612509906131ed565b80601f0160208091040260200160405190810160405280929190818152602001828054612535906131ed565b80156125825780601f1061255757610100808354040283529160200191612582565b820191906000526020600020905b81548152906001019060200180831161256557829003601f168201915b505050505090806003018054612597906131ed565b80601f01602080910402602001604051908101604052809291908181526020018280546125c3906131ed565b80156126105780601f106125e557610100808354040283529160200191612610565b820191906000526020600020905b8154815290600101906020018083116125f357829003601f168201915b505050505090806004018054612625906131ed565b80601f0160208091040260200160405190810160405280929190818152602001828054612651906131ed565b801561269e5780601f106126735761010080835404028352916020019161269e565b820191906000526020600020905b81548152906001019060200180831161268157829003601f168201915b5050505050908060050154908060060160009054906101000a900473ffffffffffffffffffffffffffffffffffffffff16908060070154908060080160009054906101000a900460ff1690806009015490508a565b6126fb61283e565b73ffffffffffffffffffffffffffffffffffffffff16612719611693565b73ffffffffffffffffffffffffffffffffffffffff16146127785761273c61283e565b6040517f118cdaa700000000000000000000000000000000000000000000000000000000815260040161276f9190612eb9565b60405180910390fd5b565b60008060009054906101000a900473ffffffffffffffffffffffffffffffffffffffff169050816000806101000a81548173ffffffffffffffffffffffffffffffffffffffff021916908373ffffffffffffffffffffffffffffffffffffffff1602179055508173ffffffffffffffffffffffffffffffffffffffff168173ffffffffffffffffffffffffffffffffffffffff167f8be0079c531659141344cd1fd0a4f28419497f9722a3daafe3b4186f6b6457e060405160405180910390a35050565b600033905090565b6000604051905090565b600080fd5b600080fd5b600073ffffffffffffffffffffffffffffffffffffffff82169050919050565b60006128858261285a565b9050919050565b6128958161287a565b81146128a057600080fd5b50565b6000813590506128b28161288c565b92915050565b6000602082840312156128ce576128cd612850565b5b60006128dc848285016128a3565b91505092915050565b6000819050919050565b6128f8816128e5565b82525050565b600060208201905061291360008301846128ef565b92915050565b612922816128e5565b811461292d57600080fd5b50565b60008135905061293f81612919565b92915050565b60006020828403121561295b5761295a612850565b5b600061296984828501612930565b91505092915050565b600081519050919050565b600082825260208201905092915050565b60005b838110156129ac578082015181840152602081019050612991565b60008484015250505050565b6000601f19601f8301169050919050565b60006129d482612972565b6129de818561297d565b93506129ee81856020860161298e565b6129f7816129b8565b840191505092915050565b612a0b8161287a565b82525050565b60008115159050919050565b612a2681612a11565b82525050565b600060e0820190508181036000830152612a46818a6129c9565b90508181036020830152612a5a81896129c9565b90508181036040830152612a6e81886129c9565b9050612a7d60608301876128ef565b612a8a60808301866128ef565b612a9760a0830185612a02565b612aa460c0830184612a1d565b98975050505050505050565b600081519050919050565b600082825260208201905092915050565b6000819050602082019050919050565b600082825260208201905092915050565b6000612af882612972565b612b028185612adc565b9350612b1281856020860161298e565b612b1b816129b8565b840191505092915050565b612b2f816128e5565b82525050565b612b3e8161287a565b82525050565b612b4d81612a11565b82525050565b600060e0830160008301518482036000860152612b708282612aed565b91505060208301518482036020860152612b8a8282612aed565b91505060408301518482036040860152612ba48282612aed565b9150506060830151612bb96060860182612b26565b506080830151612bcc6080860182612b26565b5060a0830151612bdf60a0860182612b35565b5060c0830151612bf260c0860182612b44565b508091505092915050565b6000612c098383612b53565b905092915050565b6000602082019050919050565b6000612c2982612ab0565b612c338185612abb565b935083602082028501612c4585612acc565b8060005b85811015612c815784840389528151612c628582612bfd565b9450612c6d83612c11565b925060208a01995050600181019050612c49565b50829750879550505050505092915050565b60006020820190508181036000830152612cad8184612c1e565b905092915050565b600080fd5b600080fd5b7f4e487b7100000000000000000000000000000000000000000000000000000000600052604160045260246000fd5b612cf7826129b8565b810181811067ffffffffffffffff82111715612d1657612d15612cbf565b5b80604052505050565b6000612d29612846565b9050612d358282612cee565b919050565b600067ffffffffffffffff821115612d5557612d54612cbf565b5b612d5e826129b8565b9050602081019050919050565b82818337600083830152505050565b6000612d8d612d8884612d3a565b612d1f565b905082815260208101848484011115612da957612da8612cba565b5b612db4848285612d6b565b509392505050565b600082601f830112612dd157612dd0612cb5565b5b8135612de1848260208601612d7a565b91505092915050565b600080600080600060a08688031215612e0657612e05612850565b5b600086013567ffffffffffffffff811115612e2457612e23612855565b5b612e3088828901612dbc565b955050602086013567ffffffffffffffff811115612e5157612e50612855565b5b612e5d88828901612dbc565b945050604086013567ffffffffffffffff811115612e7e57612e7d612855565b5b612e8a88828901612dbc565b9350506060612e9b88828901612930565b9250506080612eac88828901612930565b9150509295509295909350565b6000602082019050612ece6000830184612a02565b92915050565b600060208284031215612eea57612ee9612850565b5b600082013567ffffffffffffffff811115612f0857612f07612855565b5b612f1484828501612dbc565b91505092915050565b6000602082019050612f326000830184612a1d565b92915050565b600061014082019050612f4e600083018d6128ef565b8181036020830152612f60818c6129c9565b90508181036040830152612f74818b6129c9565b90508181036060830152612f88818a6129c9565b90508181036080830152612f9c81896129c9565b9050612fab60a08301886128ef565b612fb860c0830187612a02565b612fc560e08301866128ef565b612fd3610100830185612a1d565b612fe16101208301846128ef565b9b9a5050505050505050505050565b600081519050919050565b600082825260208201905092915050565b6000819050602082019050919050565b60006130288383612b26565b60208301905092915050565b6000602082019050919050565b600061304c82612ff0565b6130568185612ffb565b93506130618361300c565b8060005b83811015613092578151613079888261301c565b975061308483613034565b925050600181019050613065565b5085935050505092915050565b600060208201905081810360008301526130b98184613041565b905092915050565b60008060008060008060c087890312156130de576130dd612850565b5b600087013567ffffffffffffffff8111156130fc576130fb612855565b5b61310889828a01612dbc565b965050602087013567ffffffffffffffff81111561312957613128612855565b5b61313589828a01612dbc565b955050604087013567ffffffffffffffff81111561315657613155612855565b5b61316289828a01612dbc565b945050606087013567ffffffffffffffff81111561318357613182612855565b5b61318f89828a01612dbc565b93505060806131a089828a01612930565b92505060a06131b189828a01612930565b9150509295509295509295565b7f4e487b7100000000000000000000000000000000000000000000000000000000600052602260045260246000fd5b6000600282049050600182168061320557607f821691505b602082108103613218576132176131be565b5b50919050565b7f4e487b7100000000000000000000000000000000000000000000000000000000600052601160045260246000fd5b6000613258826128e5565b91507fffffffffffffffffffffffffffffffffffffffffffffffffffffffffffffffff820361328a5761328961321e565b5b600182019050919050565b60008190508160005260206000209050919050565b60006020601f8301049050919050565b600082821b905092915050565b6000600883026132f77fffffffffffffffffffffffffffffffffffffffffffffffffffffffffffffffff826132ba565b61330186836132ba565b95508019841693508086168417925050509392505050565b6000819050919050565b600061333e613339613334846128e5565b613319565b6128e5565b9050919050565b6000819050919050565b61335883613323565b61336c61336482613345565b8484546132c7565b825550505050565b600090565b613381613374565b61338c81848461334f565b505050565b5b818110156133b0576133a5600082613379565b600181019050613392565b5050565b601f8211156133f5576133c681613295565b6133cf846132aa565b810160208510156133de578190505b6133f26133ea856132aa565b830182613391565b50505b505050565b600082821c905092915050565b6000613418600019846008026133fa565b1980831691505092915050565b60006134318383613407565b9150826002028217905092915050565b61344a82612972565b67ffffffffffffffff81111561346357613462612cbf565b5b61346d82546131ed565b6134788282856133b4565b600060209050601f8311600181146134ab5760008415613499578287015190505b6134a38582613425565b86555061350b565b601f1984166134b986613295565b60005b828110156134e1578489015182556001820191506020850194506020810190506134bc565b868310156134fe57848901516134fa601f891682613407565b8355505b6001600288020188555050505b505050505050565b7f4e487b7100000000000000000000000000000000000000000000000000000000600052603260045260246000fd5b600081905092915050565b600061355882612972565b6135628185613542565b935061357281856020860161298e565b80840191505092915050565b600061358a828461354d565b915081905092915050565b600060a0820190506135aa60008301886128ef565b81810360208301526135bc81876129c9565b905081810360408301526135d081866129c9565b905081810360608301526135e481856129c9565b905081810360808301526135f881846129c9565b9050969550505050505056fea26469706673582212208377a57af8c1a994a17bc3616552ab2a4cf123e791c2c90aa6806608e27805fb64736f6c63430008110033",
  "immutableReferences": {},
  "source": "pragma solidity ^0.8.17;\r\n\r\nimport \"./Ownable.sol\";\r\n//SPDX-License-Identifier: UNLICENSED\r\n\r\ncontract Registry is Ownable{\r\n\r\n    constructor() Ownable(msg.sender){}\r\n    \r\n    uint public propCount = 0;\r\n    uint holderCount = 0;\r\n    uint public transactionCount = 0;\r\n\r\n    // struct for property owner details\r\n    struct holder {\r\n        string name;\r\n        string tax_pin;\r\n        string email;\r\n        uint id_no;\r\n        uint contact;\r\n        address owner;\r\n        bool isExist;\r\n    }\r\n\r\n\r\n\r\n    //struct for property details\r\n    struct property {\r\n        uint id;\r\n        string name;\r\n        string location;\r\n        string holder_name;\r\n        string lr_no;\r\n        uint holder_id;\r\n        address _addr;\r\n        uint price;\r\n        bool sold;\r\n        uint timestamp;\r\n    }\r\n\r\n\r\n\r\n    // stores properties\r\n    mapping(uint => property) public properties;\r\n    mapping(uint => property) public transactions;\r\n\r\n    // stores holders\r\n    holder [] public holders;\r\n\r\n\r\n    // event that listens to addition of a new property into the properties array\r\n    event NewProperty(uint propertyId, string name, string location, string holder_name, string lr_no);\r\n    event LogApprovedForTransaction(uint propertyId);\r\n    event LogSold(uint propertyId);\r\n\r\n\r\n\r\n    // a lookup of how many properties a holder has\r\n    mapping (address => uint) public holderToPropertyCount;\r\n    // a lookup of property owners by their property id\r\n    mapping (uint => address) public propertyToHolder;\r\n    // a lookup of validatorDetails by their addresses\r\n    mapping (string => bool) public regToAvailable;\r\n\r\n    mapping (address => property) public publicProperty;\r\n    mapping (address => holder) public holderdetails;\r\n\r\n    // registers holders\r\n    function regHolders(string memory name, string memory tax_pin, string memory email,uint id_no, uint contact) public {\r\n        holderCount++;\r\n        holders.push(holder(name,tax_pin,email, id_no,contact,msg.sender,true));\r\n        holderdetails[msg.sender]=holder(name,tax_pin,email,id_no,contact,msg.sender,true);\r\n    }\r\n\r\n    // returns holder details\r\n    function getHolders() public view returns (holder[] memory){\r\n        return holders;\r\n    }\r\n\r\n\r\n\r\n    // registers property by their owners\r\n    function regProperty(string memory name, string memory location, string memory holder_name, string memory lr_no, uint holder_id,uint price) public {\r\n        //push each property to the properties array\r\n        require(!regToAvailable[lr_no]);\r\n        bool pd = false;\r\n        // add property count\r\n        propCount++;\r\n        transactionCount++;\r\n        uint timestamp = block.timestamp;\r\n        properties[propCount] = property(propCount, name, location, holder_name, lr_no, holder_id, msg.sender,price,pd, timestamp);\r\n        transactions[transactionCount] = property(propCount, name, location, holder_name, lr_no, holder_id, msg.sender,price,pd, timestamp);\r\n\r\n\r\n        regToAvailable[lr_no] = true;\r\n        holderToPropertyCount[msg.sender]++;\r\n\r\n        emit NewProperty(propCount, name, location, holder_name, lr_no);\r\n\r\n    }\r\n\r\n\r\n    // function that gets all properties by their owners address\r\n    function getPropertyByHolder(address _holder) external view returns(uint[] memory) {\r\n        uint[] memory result = new uint[] (holderToPropertyCount[_holder]);\r\n        uint counter = 0;\r\n\r\n        //loops through the holders array checking each holder and the properties they own and adds a counter for each property a holder has\r\n        for (uint i = 0; i < holders.length; i++) {\r\n            if(propertyToHolder[i] == _holder) {\r\n                result[counter] = i;\r\n                counter++;\r\n            }\r\n        }\r\n        return result;\r\n    }\r\n\r\n    function buyProperty(uint _propertyId) public payable {\r\n        property memory _land= properties[_propertyId];\r\n        address _seller = _land._addr;\r\n        // Require that the land is for sale\r\n        require(!_land.sold);\r\n        // Require that the buyer is not the seller\r\n        require(_seller != msg.sender);\r\n        // Ensure price is correct\r\n        require(msg.value >= _land.price);\r\n        // Update the product\r\n        _land._addr = msg.sender;\r\n\r\n        _land.sold = true;\r\n\r\n        properties[_propertyId] = _land;\r\n        // Send money\r\n        payable(_seller).transfer(msg.value);\r\n        bool pd = false;\r\n        // Transfer property ownership\r\n        _land.timestamp = block.timestamp;\r\n        transactionCount++;\r\n        transactions[transactionCount] = property(transactionCount, _land.name, _land.location, _land.holder_name, _land.lr_no, _land.holder_id, msg.sender,_land.price,pd, block.timestamp);\r\n        emit LogSold(_propertyId);\r\n    }\r\n\r\n    function sellProperty (uint _propertyId) public view{\r\n        property memory _land= properties[_propertyId];\r\n        // require that the seller is the land owner\r\n        require(msg.sender == _land._addr);\r\n        _land.sold = false;\r\n    }\r\n\r\n\r\n\r\n}\r\n",
  "sourcePath": "C:\\Users\\LENOVO\\Desktop\\projects\\land-registry\\contracts\\registry.sol",
  "compiler": {
    "name": "solc",
    "version": "0.8.17+commit.8df45f5f.Emscripten.clang"
  },
  "schemaVersion": "3.4.14",
  "updatedAt": "2023-08-15T13:02:35.411Z",
  "networkType": "ethereum",
  "devdoc": {
    "errors": {
      "OwnableInvalidOwner(address)": [
        {
          "details": "The owner is not a valid owner account. (eg. `address(0)`)"
        }
      ],
      "OwnableUnauthorizedAccount(address)": [
        {
          "details": "The caller account is not authorized to perform an operation."
        }
      ]
    },
    "kind": "dev",
    "methods": {
      "owner()": {
        "details": "Returns the address of the current owner."
      },
      "renounceOwnership()": {
        "details": "Leaves the contract without owner. It will not be possible to call `onlyOwner` functions. Can only be called by the current owner. NOTE: Renouncing ownership will leave the contract without an owner, thereby disabling any functionality that is only available to the owner."
      },
      "transferOwnership(address)": {
        "details": "Transfers ownership of the contract to a new account (`newOwner`). Can only be called by the current owner."
      }
    },
    "version": 1
  },
  "userdoc": {
    "kind": "user",
    "methods": {},
    "version": 1
  }
}